:100000000C942A000C9447000C9447000C94470071
:100010000C9447000C9447000C9447000C94470044
:100020000C9447000C9447000C9447000C94470034
:100030000C9447000C9447000C9447000C94470024
:100040000C9447000C9447000C9447000C94470014
:100050000C94470011241FBECFE5D4E0DEBFCDBF16
:1000600010E0A0E6B0E0E2EFF0E002C005900D92F3
:10007000A036B107D9F710E0A0E6B0E001C01D92AC
:10008000A036B107E1F70E9449000C9477000C9468
:1000900000008FEF87BB80EF8ABBFAE030EA26E0F2
:1000A00060ED77E040EA5FE0E9E083B3823021F47D
:1000B000F8BB832F8A95F1F783B3813011F4E8BB45
:1000C00004C083B3813029F428BB832F8A95F1F7CC
:1000D000ECCF83B3882319F428BBCA0105C083B3CE
:1000E000873019F728BBCB010197F1F7DECFF894E1
:0200F000FFCF40
:00000001FF
